{
  "_format": "hh-sol-artifact-1",
  "contractName": "MyEpicNFT",
  "sourceName": "contracts/MyEpicNFT.sol",
  "abi": [
    {
      "inputs": [],
      "stateMutability": "nonpayable",
      "type": "constructor"
    },
    {
      "anonymous": false,
      "inputs": [
        {
          "indexed": true,
          "internalType": "address",
          "name": "owner",
          "type": "address"
        },
        {
          "indexed": true,
          "internalType": "address",
          "name": "approved",
          "type": "address"
        },
        {
          "indexed": true,
          "internalType": "uint256",
          "name": "tokenId",
          "type": "uint256"
        }
      ],
      "name": "Approval",
      "type": "event"
    },
    {
      "anonymous": false,
      "inputs": [
        {
          "indexed": true,
          "internalType": "address",
          "name": "owner",
          "type": "address"
        },
        {
          "indexed": true,
          "internalType": "address",
          "name": "operator",
          "type": "address"
        },
        {
          "indexed": false,
          "internalType": "bool",
          "name": "approved",
          "type": "bool"
        }
      ],
      "name": "ApprovalForAll",
      "type": "event"
    },
    {
      "anonymous": false,
      "inputs": [
        {
          "indexed": false,
          "internalType": "address",
          "name": "sender",
          "type": "address"
        },
        {
          "indexed": false,
          "internalType": "uint256",
          "name": "tokenId",
          "type": "uint256"
        }
      ],
      "name": "NewEpicNFTMinted",
      "type": "event"
    },
    {
      "anonymous": false,
      "inputs": [
        {
          "indexed": true,
          "internalType": "address",
          "name": "from",
          "type": "address"
        },
        {
          "indexed": true,
          "internalType": "address",
          "name": "to",
          "type": "address"
        },
        {
          "indexed": true,
          "internalType": "uint256",
          "name": "tokenId",
          "type": "uint256"
        }
      ],
      "name": "Transfer",
      "type": "event"
    },
    {
      "inputs": [
        {
          "internalType": "address",
          "name": "to",
          "type": "address"
        },
        {
          "internalType": "uint256",
          "name": "tokenId",
          "type": "uint256"
        }
      ],
      "name": "approve",
      "outputs": [],
      "stateMutability": "nonpayable",
      "type": "function"
    },
    {
      "inputs": [
        {
          "internalType": "address",
          "name": "owner",
          "type": "address"
        }
      ],
      "name": "balanceOf",
      "outputs": [
        {
          "internalType": "uint256",
          "name": "",
          "type": "uint256"
        }
      ],
      "stateMutability": "view",
      "type": "function"
    },
    {
      "inputs": [
        {
          "internalType": "uint256",
          "name": "tokenId",
          "type": "uint256"
        }
      ],
      "name": "getApproved",
      "outputs": [
        {
          "internalType": "address",
          "name": "",
          "type": "address"
        }
      ],
      "stateMutability": "view",
      "type": "function"
    },
    {
      "inputs": [
        {
          "internalType": "uint256",
          "name": "tokenId",
          "type": "uint256"
        },
        {
          "internalType": "string[]",
          "name": "words",
          "type": "string[]"
        }
      ],
      "name": "getRandomItemFromArray",
      "outputs": [
        {
          "internalType": "string",
          "name": "",
          "type": "string"
        }
      ],
      "stateMutability": "pure",
      "type": "function"
    },
    {
      "inputs": [
        {
          "internalType": "address",
          "name": "owner",
          "type": "address"
        },
        {
          "internalType": "address",
          "name": "operator",
          "type": "address"
        }
      ],
      "name": "isApprovedForAll",
      "outputs": [
        {
          "internalType": "bool",
          "name": "",
          "type": "bool"
        }
      ],
      "stateMutability": "view",
      "type": "function"
    },
    {
      "inputs": [],
      "name": "makeAnEpicNFT",
      "outputs": [],
      "stateMutability": "nonpayable",
      "type": "function"
    },
    {
      "inputs": [],
      "name": "name",
      "outputs": [
        {
          "internalType": "string",
          "name": "",
          "type": "string"
        }
      ],
      "stateMutability": "view",
      "type": "function"
    },
    {
      "inputs": [
        {
          "internalType": "uint256",
          "name": "tokenId",
          "type": "uint256"
        }
      ],
      "name": "ownerOf",
      "outputs": [
        {
          "internalType": "address",
          "name": "",
          "type": "address"
        }
      ],
      "stateMutability": "view",
      "type": "function"
    },
    {
      "inputs": [
        {
          "internalType": "address",
          "name": "from",
          "type": "address"
        },
        {
          "internalType": "address",
          "name": "to",
          "type": "address"
        },
        {
          "internalType": "uint256",
          "name": "tokenId",
          "type": "uint256"
        }
      ],
      "name": "safeTransferFrom",
      "outputs": [],
      "stateMutability": "nonpayable",
      "type": "function"
    },
    {
      "inputs": [
        {
          "internalType": "address",
          "name": "from",
          "type": "address"
        },
        {
          "internalType": "address",
          "name": "to",
          "type": "address"
        },
        {
          "internalType": "uint256",
          "name": "tokenId",
          "type": "uint256"
        },
        {
          "internalType": "bytes",
          "name": "_data",
          "type": "bytes"
        }
      ],
      "name": "safeTransferFrom",
      "outputs": [],
      "stateMutability": "nonpayable",
      "type": "function"
    },
    {
      "inputs": [
        {
          "internalType": "address",
          "name": "operator",
          "type": "address"
        },
        {
          "internalType": "bool",
          "name": "approved",
          "type": "bool"
        }
      ],
      "name": "setApprovalForAll",
      "outputs": [],
      "stateMutability": "nonpayable",
      "type": "function"
    },
    {
      "inputs": [
        {
          "internalType": "bytes4",
          "name": "interfaceId",
          "type": "bytes4"
        }
      ],
      "name": "supportsInterface",
      "outputs": [
        {
          "internalType": "bool",
          "name": "",
          "type": "bool"
        }
      ],
      "stateMutability": "view",
      "type": "function"
    },
    {
      "inputs": [],
      "name": "symbol",
      "outputs": [
        {
          "internalType": "string",
          "name": "",
          "type": "string"
        }
      ],
      "stateMutability": "view",
      "type": "function"
    },
    {
      "inputs": [
        {
          "internalType": "uint256",
          "name": "tokenId",
          "type": "uint256"
        }
      ],
      "name": "tokenURI",
      "outputs": [
        {
          "internalType": "string",
          "name": "",
          "type": "string"
        }
      ],
      "stateMutability": "view",
      "type": "function"
    },
    {
      "inputs": [
        {
          "internalType": "address",
          "name": "from",
          "type": "address"
        },
        {
          "internalType": "address",
          "name": "to",
          "type": "address"
        },
        {
          "internalType": "uint256",
          "name": "tokenId",
          "type": "uint256"
        }
      ],
      "name": "transferFrom",
      "outputs": [],
      "stateMutability": "nonpayable",
      "type": "function"
    }
  ],
  "bytecode": "0x608060405260405180610100016040528060d381526020016200453760d39139600890805190602001906200003692919062000867565b506040518060800160405280605681526020016200460a60569139600990805190602001906200006892919062000867565b506040518060c001604052806040518060400160405280600381526020017f726564000000000000000000000000000000000000000000000000000000000081525081526020016040518060400160405280600781526020017f233038433241380000000000000000000000000000000000000000000000000081525081526020016040518060400160405280600581526020017f62726f776e00000000000000000000000000000000000000000000000000000081525081526020016040518060400160405280600681526020017f79656c6c6f77000000000000000000000000000000000000000000000000000081525081526020016040518060400160405280600481526020017f626c75650000000000000000000000000000000000000000000000000000000081525081526020016040518060400160405280600581526020017f677265656e000000000000000000000000000000000000000000000000000000815250815250600a906006620001e6929190620008f8565b506040518060a001604052806040518060400160405280600781526020017f457870726573730000000000000000000000000000000000000000000000000081525081526020016040518060400160405280600a81526020017f537072696e67426f6f740000000000000000000000000000000000000000000081525081526020016040518060400160405280600581526020017f5261696c7300000000000000000000000000000000000000000000000000000081525081526020016040518060400160405280600681526020017f446a616e676f000000000000000000000000000000000000000000000000000081525081526020016040518060400160405280600781526020017f4c61726176656c00000000000000000000000000000000000000000000000000815250815250600b906005620003299291906200095f565b506040518060e001604052806040518060400160405280600581526020017f526561637400000000000000000000000000000000000000000000000000000081525081526020016040518060400160405280600781526020017f416e67756c61720000000000000000000000000000000000000000000000000081525081526020016040518060400160405280600381526020017f567565000000000000000000000000000000000000000000000000000000000081525081526020016040518060400160405280600781526020017f5376656c6574650000000000000000000000000000000000000000000000000081525081526020016040518060400160405280600781526020017f466c75747465720000000000000000000000000000000000000000000000000081525081526020016040518060400160405280600b81526020017f52656163744e617469766500000000000000000000000000000000000000000081525081526020016040518060400160405280600681526020017f4b6f746c696e0000000000000000000000000000000000000000000000000000815250815250600c906007620004e2929190620009c6565b506040518060e001604052806040518060400160405280600881526020017f506f73746772657300000000000000000000000000000000000000000000000081525081526020016040518060400160405280600781526020017f4d6172696164620000000000000000000000000000000000000000000000000081525081526020016040518060400160405280600781526020017f4d6f6e676f64620000000000000000000000000000000000000000000000000081525081526020016040518060400160405280600981526020017f52657468696e6b6462000000000000000000000000000000000000000000000081525081526020016040518060400160405280600981526020017f436f636b726f616368000000000000000000000000000000000000000000000081525081526020016040518060400160405280600881526020017f436173616e64726100000000000000000000000000000000000000000000000081525081526020016040518060400160405280600681526020017f53716c6974650000000000000000000000000000000000000000000000000000815250815250600d9060076200069b929190620009c6565b50348015620006a957600080fd5b506040518060400160405280600981526020017f5371756172654e465400000000000000000000000000000000000000000000008152506040518060400160405280600681526020017f535155415245000000000000000000000000000000000000000000000000000081525081600090805190602001906200072e92919062000867565b5080600190805190602001906200074792919062000867565b505050620007956040518060400160405280601e81526020017f54686973206973206d79204e465420436f6e74726163742e2057686f612100008152506200079b60201b620010531760201c565b62000be7565b6200083b81604051602401620007b2919062000afb565b6040516020818303038152906040527f41304fac000000000000000000000000000000000000000000000000000000007bffffffffffffffffffffffffffffffffffffffffffffffffffffffff19166020820180517bffffffffffffffffffffffffffffffffffffffffffffffffffffffff83818316178352505050506200083e60201b60201c565b50565b60008151905060006a636f6e736f6c652e6c6f679050602083016000808483855afa5050505050565b828054620008759062000b71565b90600052602060002090601f016020900481019282620008995760008555620008e5565b82601f10620008b457805160ff1916838001178555620008e5565b82800160010185558215620008e5579182015b82811115620008e4578251825591602001919060010190620008c7565b5b509050620008f4919062000a2d565b5090565b8280548282559060005260206000209081019282156200094c579160200282015b828111156200094b5782518290805190602001906200093a92919062000867565b509160200191906001019062000919565b5b5090506200095b919062000a4c565b5090565b828054828255906000526020600020908101928215620009b3579160200282015b82811115620009b2578251829080519060200190620009a192919062000867565b509160200191906001019062000980565b5b509050620009c2919062000a4c565b5090565b82805482825590600052602060002090810192821562000a1a579160200282015b8281111562000a1957825182908051906020019062000a0892919062000867565b5091602001919060010190620009e7565b5b50905062000a29919062000a4c565b5090565b5b8082111562000a4857600081600090555060010162000a2e565b5090565b5b8082111562000a70576000818162000a66919062000a74565b5060010162000a4d565b5090565b50805462000a829062000b71565b6000825580601f1062000a96575062000ab7565b601f01602090049060005260206000209081019062000ab6919062000a2d565b5b50565b600062000ac78262000b1f565b62000ad3818562000b2a565b935062000ae581856020860162000b3b565b62000af08162000bd6565b840191505092915050565b6000602082019050818103600083015262000b17818462000aba565b905092915050565b600081519050919050565b600082825260208201905092915050565b60005b8381101562000b5b57808201518184015260208101905062000b3e565b8381111562000b6b576000848401525b50505050565b6000600282049050600182168062000b8a57607f821691505b6020821081141562000ba15762000ba062000ba7565b5b50919050565b7f4e487b7100000000000000000000000000000000000000000000000000000000600052602260045260246000fd5b6000601f19601f8301169050919050565b6139408062000bf76000396000f3fe608060405234801561001057600080fd5b50600436106100f55760003560e01c806370a0823111610097578063c87b56dd11610066578063c87b56dd14610282578063de9d132f146102b2578063e8a7f20e146102bc578063e985e9c5146102ec576100f5565b806370a08231146101fc57806395d89b411461022c578063a22cb4651461024a578063b88d4fde14610266576100f5565b8063095ea7b3116100d3578063095ea7b31461017857806323b872dd1461019457806342842e0e146101b05780636352211e146101cc576100f5565b806301ffc9a7146100fa57806306fdde031461012a578063081812fc14610148575b600080fd5b610114600480360381019061010f9190612542565b61031c565b6040516101219190613159565b60405180910390f35b6101326103fe565b60405161013f9190613174565b60405180910390f35b610162600480360381019061015d9190612594565b610490565b60405161016f91906130c9565b60405180910390f35b610192600480360381019061018d9190612506565b610515565b005b6101ae60048036038101906101a99190612400565b61062d565b005b6101ca60048036038101906101c59190612400565b61068d565b005b6101e660048036038101906101e19190612594565b6106ad565b6040516101f391906130c9565b60405180910390f35b6102166004803603810190610211919061239b565b61075f565b60405161022391906133d4565b60405180910390f35b610234610817565b6040516102419190613174565b60405180910390f35b610264600480360381019061025f91906124ca565b6108a9565b005b610280600480360381019061027b919061244f565b6108bf565b005b61029c60048036038101906102979190612594565b610921565b6040516102a99190613174565b60405180910390f35b6102ba610a73565b005b6102d660048036038101906102d191906125bd565b610f30565b6040516102e39190613174565b60405180910390f35b610306600480360381019061030191906123c4565b610fbf565b6040516103139190613159565b60405180910390f35b60007f80ac58cd000000000000000000000000000000000000000000000000000000007bffffffffffffffffffffffffffffffffffffffffffffffffffffffff1916827bffffffffffffffffffffffffffffffffffffffffffffffffffffffff191614806103e757507f5b5e139f000000000000000000000000000000000000000000000000000000007bffffffffffffffffffffffffffffffffffffffffffffffffffffffff1916827bffffffffffffffffffffffffffffffffffffffffffffffffffffffff1916145b806103f757506103f6826110ec565b5b9050919050565b60606000805461040d906136cf565b80601f0160208091040260200160405190810160405280929190818152602001828054610439906136cf565b80156104865780601f1061045b57610100808354040283529160200191610486565b820191906000526020600020905b81548152906001019060200180831161046957829003601f168201915b5050505050905090565b600061049b82611156565b6104da576040517f08c379a00000000000000000000000000000000000000000000000000000000081526004016104d190613334565b60405180910390fd5b6004600083815260200190815260200160002060009054906101000a900473ffffffffffffffffffffffffffffffffffffffff169050919050565b6000610520826106ad565b90508073ffffffffffffffffffffffffffffffffffffffff168373ffffffffffffffffffffffffffffffffffffffff161415610591576040517f08c379a000000000000000000000000000000000000000000000000000000000815260040161058890613394565b60405180910390fd5b8073ffffffffffffffffffffffffffffffffffffffff166105b06111c2565b73ffffffffffffffffffffffffffffffffffffffff1614806105df57506105de816105d96111c2565b610fbf565b5b61061e576040517f08c379a000000000000000000000000000000000000000000000000000000000815260040161061590613274565b60405180910390fd5b61062883836111ca565b505050565b61063e6106386111c2565b82611283565b61067d576040517f08c379a0000000000000000000000000000000000000000000000000000000008152600401610674906133b4565b60405180910390fd5b610688838383611361565b505050565b6106a8838383604051806020016040528060008152506108bf565b505050565b6000806002600084815260200190815260200160002060009054906101000a900473ffffffffffffffffffffffffffffffffffffffff169050600073ffffffffffffffffffffffffffffffffffffffff168173ffffffffffffffffffffffffffffffffffffffff161415610756576040517f08c379a000000000000000000000000000000000000000000000000000000000815260040161074d906132b4565b60405180910390fd5b80915050919050565b60008073ffffffffffffffffffffffffffffffffffffffff168273ffffffffffffffffffffffffffffffffffffffff1614156107d0576040517f08c379a00000000000000000000000000000000000000000000000000000000081526004016107c790613294565b60405180910390fd5b600360008373ffffffffffffffffffffffffffffffffffffffff1673ffffffffffffffffffffffffffffffffffffffff168152602001908152602001600020549050919050565b606060018054610826906136cf565b80601f0160208091040260200160405190810160405280929190818152602001828054610852906136cf565b801561089f5780601f106108745761010080835404028352916020019161089f565b820191906000526020600020905b81548152906001019060200180831161088257829003601f168201915b5050505050905090565b6108bb6108b46111c2565b83836115bd565b5050565b6108d06108ca6111c2565b83611283565b61090f576040517f08c379a0000000000000000000000000000000000000000000000000000000008152600401610906906133b4565b60405180910390fd5b61091b8484848461172a565b50505050565b606061092c82611156565b61096b576040517f08c379a000000000000000000000000000000000000000000000000000000000815260040161096290613314565b60405180910390fd5b600060066000848152602001908152602001600020805461098b906136cf565b80601f01602080910402602001604051908101604052809291908181526020018280546109b7906136cf565b8015610a045780601f106109d957610100808354040283529160200191610a04565b820191906000526020600020905b8154815290600101906020018083116109e757829003601f168201915b505050505090506000610a15611786565b9050600081511415610a2b578192505050610a6e565b600082511115610a60578082604051602001610a48929190612f97565b60405160208183030381529060405292505050610a6e565b610a698461179d565b925050505b919050565b6000610a7f6007611844565b90506000610b5e82600a805480602002602001604051908101604052809291908181526020016000905b82821015610b55578382906000526020600020018054610ac8906136cf565b80601f0160208091040260200160405190810160405280929190818152602001828054610af4906136cf565b8015610b415780601f10610b1657610100808354040283529160200191610b41565b820191906000526020600020905b815481529060010190602001808311610b2457829003601f168201915b505050505081526020019060010190610aa9565b50505050610f30565b90506000610c3d83600b805480602002602001604051908101604052809291908181526020016000905b82821015610c34578382906000526020600020018054610ba7906136cf565b80601f0160208091040260200160405190810160405280929190818152602001828054610bd3906136cf565b8015610c205780601f10610bf557610100808354040283529160200191610c20565b820191906000526020600020905b815481529060010190602001808311610c0357829003601f168201915b505050505081526020019060010190610b88565b50505050610f30565b90506000610d1c84600c805480602002602001604051908101604052809291908181526020016000905b82821015610d13578382906000526020600020018054610c86906136cf565b80601f0160208091040260200160405190810160405280929190818152602001828054610cb2906136cf565b8015610cff5780601f10610cd457610100808354040283529160200191610cff565b820191906000526020600020905b815481529060010190602001808311610ce257829003601f168201915b505050505081526020019060010190610c67565b50505050610f30565b90506000610dfb85600d805480602002602001604051908101604052809291908181526020016000905b82821015610df2578382906000526020600020018054610d65906136cf565b80601f0160208091040260200160405190810160405280929190818152602001828054610d91906136cf565b8015610dde5780601f10610db357610100808354040283529160200191610dde565b820191906000526020600020905b815481529060010190602001808311610dc157829003601f168201915b505050505081526020019060010190610d46565b50505050610f30565b90506000838383604051602001610e1493929190612fbb565b60405160208183030381529060405290506000600886600984604051602001610e409493929190612fec565b60405160208183030381529060405290506000610e8583610e6084611852565b604051602001610e71929190613035565b604051602081830303815290604052611852565b9050600081604051602001610e9a91906130a7565b6040516020818303038152906040529050610eb5338a611a10565b610ebf8982611a2e565b610ec96007611aa2565b610eec6040518060600160405280602681526020016138e5602691398a33611ab8565b7febb98688741ffa4c7589bf325de30cf7becb63de567842e1ccdb6cb949fdc82c338a604051610f1d929190613130565b60405180910390a1505050505050505050565b60606000610f64610f4085611b57565b604051602001610f509190613085565b604051602081830303815290604052611d04565b9050825181610f73919061374a565b9050828181518110610fae577f4e487b7100000000000000000000000000000000000000000000000000000000600052603260045260246000fd5b602002602001015191505092915050565b6000600560008473ffffffffffffffffffffffffffffffffffffffff1673ffffffffffffffffffffffffffffffffffffffff16815260200190815260200160002060008373ffffffffffffffffffffffffffffffffffffffff1673ffffffffffffffffffffffffffffffffffffffff16815260200190815260200160002060009054906101000a900460ff16905092915050565b6110e9816040516024016110679190613174565b6040516020818303038152906040527f41304fac000000000000000000000000000000000000000000000000000000007bffffffffffffffffffffffffffffffffffffffffffffffffffffffff19166020820180517bffffffffffffffffffffffffffffffffffffffffffffffffffffffff8381831617835250505050611d37565b50565b60007f01ffc9a7000000000000000000000000000000000000000000000000000000007bffffffffffffffffffffffffffffffffffffffffffffffffffffffff1916827bffffffffffffffffffffffffffffffffffffffffffffffffffffffff1916149050919050565b60008073ffffffffffffffffffffffffffffffffffffffff166002600084815260200190815260200160002060009054906101000a900473ffffffffffffffffffffffffffffffffffffffff1673ffffffffffffffffffffffffffffffffffffffff1614159050919050565b600033905090565b816004600083815260200190815260200160002060006101000a81548173ffffffffffffffffffffffffffffffffffffffff021916908373ffffffffffffffffffffffffffffffffffffffff160217905550808273ffffffffffffffffffffffffffffffffffffffff1661123d836106ad565b73ffffffffffffffffffffffffffffffffffffffff167f8c5be1e5ebec7d5bd14f71427d1e84f3dd0314c0f7b2291e5b200ac8c7c3b92560405160405180910390a45050565b600061128e82611156565b6112cd576040517f08c379a00000000000000000000000000000000000000000000000000000000081526004016112c490613254565b60405180910390fd5b60006112d8836106ad565b90508073ffffffffffffffffffffffffffffffffffffffff168473ffffffffffffffffffffffffffffffffffffffff16148061134757508373ffffffffffffffffffffffffffffffffffffffff1661132f84610490565b73ffffffffffffffffffffffffffffffffffffffff16145b8061135857506113578185610fbf565b5b91505092915050565b8273ffffffffffffffffffffffffffffffffffffffff16611381826106ad565b73ffffffffffffffffffffffffffffffffffffffff16146113d7576040517f08c379a00000000000000000000000000000000000000000000000000000000081526004016113ce90613354565b60405180910390fd5b600073ffffffffffffffffffffffffffffffffffffffff168273ffffffffffffffffffffffffffffffffffffffff161415611447576040517f08c379a000000000000000000000000000000000000000000000000000000000815260040161143e90613214565b60405180910390fd5b611452838383611d60565b61145d6000826111ca565b6001600360008573ffffffffffffffffffffffffffffffffffffffff1673ffffffffffffffffffffffffffffffffffffffff16815260200190815260200160002060008282546114ad91906135e5565b925050819055506001600360008473ffffffffffffffffffffffffffffffffffffffff1673ffffffffffffffffffffffffffffffffffffffff16815260200190815260200160002060008282546115049190613504565b92505081905550816002600083815260200190815260200160002060006101000a81548173ffffffffffffffffffffffffffffffffffffffff021916908373ffffffffffffffffffffffffffffffffffffffff160217905550808273ffffffffffffffffffffffffffffffffffffffff168473ffffffffffffffffffffffffffffffffffffffff167fddf252ad1be2c89b69c2b068fc378daa952ba7f163c4a11628f55a4df523b3ef60405160405180910390a4505050565b8173ffffffffffffffffffffffffffffffffffffffff168373ffffffffffffffffffffffffffffffffffffffff16141561162c576040517f08c379a000000000000000000000000000000000000000000000000000000000815260040161162390613234565b60405180910390fd5b80600560008573ffffffffffffffffffffffffffffffffffffffff1673ffffffffffffffffffffffffffffffffffffffff16815260200190815260200160002060008473ffffffffffffffffffffffffffffffffffffffff1673ffffffffffffffffffffffffffffffffffffffff16815260200190815260200160002060006101000a81548160ff0219169083151502179055508173ffffffffffffffffffffffffffffffffffffffff168373ffffffffffffffffffffffffffffffffffffffff167f17307eab39ab6107e8899845ad3d59bd9653f200f220920489ca2b5937696c318360405161171d9190613159565b60405180910390a3505050565b611735848484611361565b61174184848484611d65565b611780576040517f08c379a0000000000000000000000000000000000000000000000000000000008152600401611777906131d4565b60405180910390fd5b50505050565b606060405180602001604052806000815250905090565b60606117a882611156565b6117e7576040517f08c379a00000000000000000000000000000000000000000000000000000000081526004016117de90613374565b60405180910390fd5b60006117f1611786565b90506000815111611811576040518060200160405280600081525061183c565b8061181b84611b57565b60405160200161182c929190612f97565b6040516020818303038152906040525b915050919050565b600081600001549050919050565b6060600082519050600081141561187b5760405180602001604052806000815250915050611a0b565b6000600360028361188c9190613504565b611896919061355a565b60046118a2919061358b565b905060006020826118b39190613504565b67ffffffffffffffff8111156118f2577f4e487b7100000000000000000000000000000000000000000000000000000000600052604160045260246000fd5b6040519080825280601f01601f1916602001820160405280156119245781602001600182028036833780820191505090505b50905060006040518060600160405280604081526020016138a5604091399050600181016020830160005b868110156119c85760038101905062ffffff818a015116603f8160121c168401518060081b905060ff603f83600c1c1686015116810190508060081b905060ff603f8360061c1686015116810190508060081b905060ff603f831686015116810190508060e01b9050808452600484019350505061194f565b5060038606600181146119e257600281146119f2576119fd565b613d3d60f01b60028303526119fd565b603d60f81b60018303525b508484525050819450505050505b919050565b611a2a828260405180602001604052806000815250611efc565b5050565b611a3782611156565b611a76576040517f08c379a0000000000000000000000000000000000000000000000000000000008152600401611a6d906132d4565b60405180910390fd5b80600660008481526020019081526020016000209080519060200190611a9d929190612138565b505050565b6001816000016000828254019250508190555050565b611b52838383604051602401611ad093929190613196565b6040516020818303038152906040527fe3849f79000000000000000000000000000000000000000000000000000000007bffffffffffffffffffffffffffffffffffffffffffffffffffffffff19166020820180517bffffffffffffffffffffffffffffffffffffffffffffffffffffffff8381831617835250505050611d37565b505050565b60606000821415611b9f576040518060400160405280600181526020017f30000000000000000000000000000000000000000000000000000000000000008152509050611cff565b600082905060005b60008214611bd1578080611bba90613701565b915050600a82611bca919061355a565b9150611ba7565b60008167ffffffffffffffff811115611c13577f4e487b7100000000000000000000000000000000000000000000000000000000600052604160045260246000fd5b6040519080825280601f01601f191660200182016040528015611c455781602001600182028036833780820191505090505b5090505b60008514611cf857600182611c5e91906135e5565b9150600a85611c6d919061374a565b6030611c799190613504565b60f81b818381518110611cb5577f4e487b7100000000000000000000000000000000000000000000000000000000600052603260045260246000fd5b60200101907effffffffffffffffffffffffffffffffffffffffffffffffffffffffffffff1916908160001a905350600a85611cf1919061355a565b9450611c49565b8093505050505b919050565b600081604051602001611d179190612f80565b6040516020818303038152906040528051906020012060001c9050919050565b60008151905060006a636f6e736f6c652e6c6f679050602083016000808483855afa5050505050565b505050565b6000611d868473ffffffffffffffffffffffffffffffffffffffff16611f57565b15611eef578373ffffffffffffffffffffffffffffffffffffffff1663150b7a02611daf6111c2565b8786866040518563ffffffff1660e01b8152600401611dd194939291906130e4565b602060405180830381600087803b158015611deb57600080fd5b505af1925050508015611e1c57506040513d601f19601f82011682018060405250810190611e19919061256b565b60015b611e9f573d8060008114611e4c576040519150601f19603f3d011682016040523d82523d6000602084013e611e51565b606091505b50600081511415611e97576040517f08c379a0000000000000000000000000000000000000000000000000000000008152600401611e8e906131d4565b60405180910390fd5b805181602001fd5b63150b7a0260e01b7bffffffffffffffffffffffffffffffffffffffffffffffffffffffff1916817bffffffffffffffffffffffffffffffffffffffffffffffffffffffff191614915050611ef4565b600190505b949350505050565b611f068383611f6a565b611f136000848484611d65565b611f52576040517f08c379a0000000000000000000000000000000000000000000000000000000008152600401611f49906131d4565b60405180910390fd5b505050565b600080823b905060008111915050919050565b600073ffffffffffffffffffffffffffffffffffffffff168273ffffffffffffffffffffffffffffffffffffffff161415611fda576040517f08c379a0000000000000000000000000000000000000000000000000000000008152600401611fd1906132f4565b60405180910390fd5b611fe381611156565b15612023576040517f08c379a000000000000000000000000000000000000000000000000000000000815260040161201a906131f4565b60405180910390fd5b61202f60008383611d60565b6001600360008473ffffffffffffffffffffffffffffffffffffffff1673ffffffffffffffffffffffffffffffffffffffff168152602001908152602001600020600082825461207f9190613504565b92505081905550816002600083815260200190815260200160002060006101000a81548173ffffffffffffffffffffffffffffffffffffffff021916908373ffffffffffffffffffffffffffffffffffffffff160217905550808273ffffffffffffffffffffffffffffffffffffffff16600073ffffffffffffffffffffffffffffffffffffffff167fddf252ad1be2c89b69c2b068fc378daa952ba7f163c4a11628f55a4df523b3ef60405160405180910390a45050565b828054612144906136cf565b90600052602060002090601f01602090048101928261216657600085556121ad565b82601f1061217f57805160ff19168380011785556121ad565b828001600101855582156121ad579182015b828111156121ac578251825591602001919060010190612191565b5b5090506121ba91906121be565b5090565b5b808211156121d75760008160009055506001016121bf565b5090565b60006121ee6121e984613420565b6133ef565b9050808382526020820190508260005b8581101561222e5781358501612214888261235c565b8452602084019350602083019250506001810190506121fe565b5050509392505050565b600061224b6122468461344c565b6133ef565b90508281526020810184848401111561226357600080fd5b61226e84828561368d565b509392505050565b60006122896122848461347c565b6133ef565b9050828152602081018484840111156122a157600080fd5b6122ac84828561368d565b509392505050565b6000813590506122c381613848565b92915050565b600082601f8301126122da57600080fd5b81356122ea8482602086016121db565b91505092915050565b6000813590506123028161385f565b92915050565b60008135905061231781613876565b92915050565b60008151905061232c81613876565b92915050565b600082601f83011261234357600080fd5b8135612353848260208601612238565b91505092915050565b600082601f83011261236d57600080fd5b813561237d848260208601612276565b91505092915050565b6000813590506123958161388d565b92915050565b6000602082840312156123ad57600080fd5b60006123bb848285016122b4565b91505092915050565b600080604083850312156123d757600080fd5b60006123e5858286016122b4565b92505060206123f6858286016122b4565b9150509250929050565b60008060006060848603121561241557600080fd5b6000612423868287016122b4565b9350506020612434868287016122b4565b925050604061244586828701612386565b9150509250925092565b6000806000806080858703121561246557600080fd5b6000612473878288016122b4565b9450506020612484878288016122b4565b935050604061249587828801612386565b925050606085013567ffffffffffffffff8111156124b257600080fd5b6124be87828801612332565b91505092959194509250565b600080604083850312156124dd57600080fd5b60006124eb858286016122b4565b92505060206124fc858286016122f3565b9150509250929050565b6000806040838503121561251957600080fd5b6000612527858286016122b4565b925050602061253885828601612386565b9150509250929050565b60006020828403121561255457600080fd5b600061256284828501612308565b91505092915050565b60006020828403121561257d57600080fd5b600061258b8482850161231d565b91505092915050565b6000602082840312156125a657600080fd5b60006125b484828501612386565b91505092915050565b600080604083850312156125d057600080fd5b60006125de85828601612386565b925050602083013567ffffffffffffffff8111156125fb57600080fd5b612607858286016122c9565b9150509250929050565b61261a81613619565b82525050565b6126298161362b565b82525050565b600061263a826134c1565b61264481856134d7565b935061265481856020860161369c565b61265d81613837565b840191505092915050565b6000612673826134cc565b61267d81856134e8565b935061268d81856020860161369c565b61269681613837565b840191505092915050565b60006126ac826134cc565b6126b681856134f9565b93506126c681856020860161369c565b80840191505092915050565b600081546126df816136cf565b6126e981866134f9565b94506001821660008114612704576001811461271557612748565b60ff19831686528186019350612748565b61271e856134ac565b60005b8381101561274057815481890152600182019150602081019050612721565b838801955050505b50505092915050565b600061275e6009836134f9565b91507f7b226e616d65223a2200000000000000000000000000000000000000000000006000830152600982019050919050565b600061279e6032836134e8565b91507f4552433732313a207472616e7366657220746f206e6f6e20455243373231526560008301527f63656976657220696d706c656d656e74657200000000000000000000000000006020830152604082019050919050565b6000612804601c836134e8565b91507f4552433732313a20746f6b656e20616c7265616479206d696e746564000000006000830152602082019050919050565b60006128446024836134e8565b91507f4552433732313a207472616e7366657220746f20746865207a65726f2061646460008301527f72657373000000000000000000000000000000000000000000000000000000006020830152604082019050919050565b60006128aa6019836134e8565b91507f4552433732313a20617070726f766520746f2063616c6c6572000000000000006000830152602082019050919050565b60006128ea6026836134f9565b91507f222c22696d616765223a2022646174613a696d6167652f7376672b786d6c3b6260008301527f61736536342c00000000000000000000000000000000000000000000000000006020830152602682019050919050565b6000612950602c836134e8565b91507f4552433732313a206f70657261746f7220717565727920666f72206e6f6e657860008301527f697374656e7420746f6b656e00000000000000000000000000000000000000006020830152604082019050919050565b60006129b6600b836134f9565b91507f544543485f535441434b530000000000000000000000000000000000000000006000830152600b82019050919050565b60006129f6600d836134f9565b91507f3c2f746578743e3c2f7376673e000000000000000000000000000000000000006000830152600d82019050919050565b6000612a366038836134e8565b91507f4552433732313a20617070726f76652063616c6c6572206973206e6f74206f7760008301527f6e6572206e6f7220617070726f76656420666f7220616c6c00000000000000006020830152604082019050919050565b6000612a9c602a836134e8565b91507f4552433732313a2062616c616e636520717565727920666f7220746865207a6560008301527f726f2061646472657373000000000000000000000000000000000000000000006020830152604082019050919050565b6000612b026029836134e8565b91507f4552433732313a206f776e657220717565727920666f72206e6f6e657869737460008301527f656e7420746f6b656e00000000000000000000000000000000000000000000006020830152604082019050919050565b6000612b68602e836134e8565b91507f45524337323155524953746f726167653a2055524920736574206f66206e6f6e60008301527f6578697374656e7420746f6b656e0000000000000000000000000000000000006020830152604082019050919050565b6000612bce6002836134f9565b91507f227d0000000000000000000000000000000000000000000000000000000000006000830152600282019050919050565b6000612c0e6020836134e8565b91507f4552433732313a206d696e7420746f20746865207a65726f20616464726573736000830152602082019050919050565b6000612c4e6031836134e8565b91507f45524337323155524953746f726167653a2055524920717565727920666f722060008301527f6e6f6e6578697374656e7420746f6b656e0000000000000000000000000000006020830152604082019050919050565b6000612cb4602c836134e8565b91507f4552433732313a20617070726f76656420717565727920666f72206e6f6e657860008301527f697374656e7420746f6b656e00000000000000000000000000000000000000006020830152604082019050919050565b6000612d1a6029836134e8565b91507f4552433732313a207472616e73666572206f6620746f6b656e2074686174206960008301527f73206e6f74206f776e00000000000000000000000000000000000000000000006020830152604082019050919050565b6000612d80602f836134e8565b91507f4552433732314d657461646174613a2055524920717565727920666f72206e6f60008301527f6e6578697374656e7420746f6b656e00000000000000000000000000000000006020830152604082019050919050565b6000612de66021836134e8565b91507f4552433732313a20617070726f76616c20746f2063757272656e74206f776e6560008301527f72000000000000000000000000000000000000000000000000000000000000006020830152604082019050919050565b6000612e4c601d836134f9565b91507f646174613a6170706c69636174696f6e2f6a736f6e3b6261736536342c0000006000830152601d82019050919050565b6000612e8c6031836134e8565b91507f4552433732313a207472616e736665722063616c6c6572206973206e6f74206f60008301527f776e6572206e6f7220617070726f7665640000000000000000000000000000006020830152604082019050919050565b6000612ef26047836134f9565b91507f222c226465736372697074696f6e223a2022436f6c6c656374696f6e206f662060008301527f72616e646f6d2061707020646576656c6f706d656e742074656368207375676760208301527f657374696f6e73000000000000000000000000000000000000000000000000006040830152604782019050919050565b612f7a81613683565b82525050565b6000612f8c82846126a1565b915081905092915050565b6000612fa382856126a1565b9150612faf82846126a1565b91508190509392505050565b6000612fc782866126a1565b9150612fd382856126a1565b9150612fdf82846126a1565b9150819050949350505050565b6000612ff882876126d2565b915061300482866126a1565b915061301082856126d2565b915061301c82846126a1565b9150613027826129e9565b915081905095945050505050565b600061304082612751565b915061304c82856126a1565b915061305782612ee5565b9150613062826128dd565b915061306e82846126a1565b915061307982612bc1565b91508190509392505050565b6000613090826129a9565b915061309c82846126a1565b915081905092915050565b60006130b282612e3f565b91506130be82846126a1565b915081905092915050565b60006020820190506130de6000830184612611565b92915050565b60006080820190506130f96000830187612611565b6131066020830186612611565b6131136040830185612f71565b8181036060830152613125818461262f565b905095945050505050565b60006040820190506131456000830185612611565b6131526020830184612f71565b9392505050565b600060208201905061316e6000830184612620565b92915050565b6000602082019050818103600083015261318e8184612668565b905092915050565b600060608201905081810360008301526131b08186612668565b90506131bf6020830185612f71565b6131cc6040830184612611565b949350505050565b600060208201905081810360008301526131ed81612791565b9050919050565b6000602082019050818103600083015261320d816127f7565b9050919050565b6000602082019050818103600083015261322d81612837565b9050919050565b6000602082019050818103600083015261324d8161289d565b9050919050565b6000602082019050818103600083015261326d81612943565b9050919050565b6000602082019050818103600083015261328d81612a29565b9050919050565b600060208201905081810360008301526132ad81612a8f565b9050919050565b600060208201905081810360008301526132cd81612af5565b9050919050565b600060208201905081810360008301526132ed81612b5b565b9050919050565b6000602082019050818103600083015261330d81612c01565b9050919050565b6000602082019050818103600083015261332d81612c41565b9050919050565b6000602082019050818103600083015261334d81612ca7565b9050919050565b6000602082019050818103600083015261336d81612d0d565b9050919050565b6000602082019050818103600083015261338d81612d73565b9050919050565b600060208201905081810360008301526133ad81612dd9565b9050919050565b600060208201905081810360008301526133cd81612e7f565b9050919050565b60006020820190506133e96000830184612f71565b92915050565b6000604051905081810181811067ffffffffffffffff8211171561341657613415613808565b5b8060405250919050565b600067ffffffffffffffff82111561343b5761343a613808565b5b602082029050602081019050919050565b600067ffffffffffffffff82111561346757613466613808565b5b601f19601f8301169050602081019050919050565b600067ffffffffffffffff82111561349757613496613808565b5b601f19601f8301169050602081019050919050565b60008190508160005260206000209050919050565b600081519050919050565b600081519050919050565b600082825260208201905092915050565b600082825260208201905092915050565b600081905092915050565b600061350f82613683565b915061351a83613683565b9250827fffffffffffffffffffffffffffffffffffffffffffffffffffffffffffffffff0382111561354f5761354e61377b565b5b828201905092915050565b600061356582613683565b915061357083613683565b9250826135805761357f6137aa565b5b828204905092915050565b600061359682613683565b91506135a183613683565b9250817fffffffffffffffffffffffffffffffffffffffffffffffffffffffffffffffff04831182151516156135da576135d961377b565b5b828202905092915050565b60006135f082613683565b91506135fb83613683565b92508282101561360e5761360d61377b565b5b828203905092915050565b600061362482613663565b9050919050565b60008115159050919050565b60007fffffffff0000000000000000000000000000000000000000000000000000000082169050919050565b600073ffffffffffffffffffffffffffffffffffffffff82169050919050565b6000819050919050565b82818337600083830152505050565b60005b838110156136ba57808201518184015260208101905061369f565b838111156136c9576000848401525b50505050565b600060028204905060018216806136e757607f821691505b602082108114156136fb576136fa6137d9565b5b50919050565b600061370c82613683565b91507fffffffffffffffffffffffffffffffffffffffffffffffffffffffffffffffff82141561373f5761373e61377b565b5b600182019050919050565b600061375582613683565b915061376083613683565b9250826137705761376f6137aa565b5b828206905092915050565b7f4e487b7100000000000000000000000000000000000000000000000000000000600052601160045260246000fd5b7f4e487b7100000000000000000000000000000000000000000000000000000000600052601260045260246000fd5b7f4e487b7100000000000000000000000000000000000000000000000000000000600052602260045260246000fd5b7f4e487b7100000000000000000000000000000000000000000000000000000000600052604160045260246000fd5b6000601f19601f8301169050919050565b61385181613619565b811461385c57600080fd5b50565b6138688161362b565b811461387357600080fd5b50565b61387f81613637565b811461388a57600080fd5b50565b61389681613683565b81146138a157600080fd5b5056fe4142434445464748494a4b4c4d4e4f505152535455565758595a6162636465666768696a6b6c6d6e6f707172737475767778797a303132333435363738392b2f416e204e465420772f204944202573206861736e206265656e206d696e74656420746f202573a2646970667358221220c7493f63067b8d45245ff7fc67f534a157a5e9d4138e9cc599c181dc92140e2a64736f6c634300080000333c73766720786d6c6e733d27687474703a2f2f7777772e77332e6f72672f323030302f73766727207072657365727665417370656374526174696f3d27784d696e594d696e206d656574272076696577426f783d273020302033353020333530273e3c7374796c653e2e62617365207b2066696c6c3a2077686974653b20666f6e742d66616d696c793a2073657269663b20666f6e742d73697a653a20323470783b207d3c2f7374796c653e3c726563742077696474683d273130302527206865696768743d2731303025272066696c6c3d27272f3e3c7465787420783d273530252720793d273530252720636c6173733d27626173652720646f6d696e616e742d626173656c696e653d276d6964646c652720746578742d616e63686f723d276d6964646c65273e",
  "linkReferences": {},
  "deployedLinkReferences": {}
}